:020000040000FA
:10000000A01300206D0100007501000077010000C1
:10001000790100007B0100007D010000000000006C
:100020000000000000000000000000007F01000050
:100030008101000000000000830100003D0E00006F
:100040008701000087010000870100008701000090
:100050008701000087010000870100008701000080
:100060008701000087010000870100008701000070
:100070008701000087010000870100008701000060
:100080008701000087010000870100008701000050
:10009000870100001D0F000087010000870100009C
:1000A00087010000890F0000790F0000990F000000
:1000B00087010000C90F0000B90F0000D90F000030
:1000C000B50F0000870100008701000087010000D4
:1000D0008701000087010000870100008701000000
:1000E00087010000870100008701000087010000F0
:1000F00087010000870100008701000087010000E0
:100100008701000087010000BD02000039030000E4
:1001100087010000870100008701000087010000BF
:1001200087010000870100008701000087010000AF
:10013000870100008701000087010000870100009F
:10014000870100008701000087010000870100008F
:100150008701000087010000DFF80CD000F05CF898
:1001600000480047DD220000A01300200648804719
:1001700006480047FEE7FEE7FEE7FEE7FEE7FEE78C
:10018000FEE7FEE7FEE7FEE7110F00005901000061
:100190000649074A0868504343F239021044086090
:1001A00040087047014908607047000000030020C4
:1001B0006D4EC64140EA01039B0703D009E008C920
:1001C000121F08C0042AFAD203E011F8013B00F81C
:1001D000013B521EF9D27047D2B201E000F8012B68
:1001E000491EFBD270470022F6E710B513460A46B7
:1001F00004461946FFF7F0FF204610BD30B504460F
:100200000020034600E05B1C934203D2E05CCD5C1F
:10021000401BF8D030BD0000064C074D06E0E068FA
:1002200040F0010394E8070098471034AC42F6D33D
:10023000FFF796FFE43C0000143D000070B58C18F9
:1002400010F8015B15F0070301D110F8013B2A11EA
:1002500006D110F8012B03E010F8016B01F8016BD7
:100260005B1EF9D12B0705D40023521E0DD401F8D3
:10027000013BFAE710F8013BCB1A921C03E013F89C
:10028000015B01F8015B521EF9D5A142D8D30020D1
:1002900070BD40F2C90CC2F2000C604740F2990CEC
:1002A000C2F2000C604740F2010CC2F2000C604741
:1002B00040F2351CC2F2000C6047000010B500206F
:1002C00000F0C4F8002000F083F80446E4B11548BB
:1002D000007858B114481549097830F81100201AEF
:1002E0001349096808441249086004E0104800688E
:1002F00020440F4908600D4802780078401C0B4BE1
:100300001870094820F8124008480078094909780F
:10031000884205D100200549087001200149087074
:1003200010BD0000E8010020B4030020F40100200B
:10033000EC010020D601002010B5012000F086F865
:10034000012000F045F80446E4B11548007858B1A2
:1003500014481549097830F81100201A1349096822
:1003600008441249086004E01048006820440F491E
:1003700008600D4802780078401C0B4B1870094843
:1003800020F812400848007809490978884205D1C8
:1003900000200549087001200149087010BD0000C7
:1003A000E901002034040020F5010020F0010020C4
:1003B000D40100204FF080421268012383409A4309
:1003C00001FA00F31A434FF080431A6070470000AF
:1003D0000146054801EB810202EBC10200EB8200FD
:1003E000006BC0F30B007047400000404FF08042AC
:1003F000126A012383409A4301FA00F31A434FF033
:1004000080431A627047000030B50F4B00EB800448
:1004100004EBC00403EB8403DB6961F317430A4C6C
:1004200000EB800505EBC00504EB8504E3614FF0AC
:1004300080435B6901248440A34302FA00F4234310
:100440004FF08044636130BD400000400121814095
:100450004FF080429162704770B50A784FF0804348
:100460009B6985000F24AC40A343840002FA04F486
:1004700023434FF08044A36100BF4A7823465B6862
:1004800001248440A34302FA00F423434FF0804444
:10049000636000BF002219E08C1CA35C6C4C00EB75
:1004A000800505EBC00554F8254096000325B540AE
:1004B000AC43950003FA05F52C43654D00EB80062F
:1004C00006EBC00645F8264000BF521C042AE3D3C1
:1004D0008A795F4B00EB800404EBC00403EB8403D8
:1004E0001B6962F301035A4C00EB800505EBC00564
:1004F00004EB8504236100BFCA79554B00EB8004EF
:1005000004EBC00403EB84031B6962F34B23504CE0
:1005100000EB800505EBC00504EB8504236100BFFB
:100520000A7A4B4B00EB800404EBC00403EB84031A
:100530001B6962F30823464C00EB800505EBC00500
:1005400004EB8504236100BF0A7B414B00EB800470
:1005500004EBC00403EB8403DB6962F307033C4C48
:1005600000EB800505EBC00504EB8504E36100BFEB
:100570000A7C374B00EB800404EBC00403EB8403DC
:10058000DB6962F30823324C00EB800505EBC00504
:1005900004EB8504E36100BF4A692D4B00EB800446
:1005A00004EBC00403EB84039B6A62F31703284C3B
:1005B00000EB800505EBC00504EB8504A36200BFDA
:1005C00000221AE001F11804A35C214C00EB800525
:1005D00005EBC00504EB8504646A01259540AC4336
:1005E00003FA02F52C431A4D00EB800606EBC00619
:1005F00005EB86056C6200BF521C042AE2D30A7F19
:10060000134B00EB800404EBC00403EB84039B69F1
:1006100062F30A230E4C00EB800505EBC00504EBEA
:100620008504A36100BF4A7F094B00EB800404EB03
:10063000C00403EB84039B6962F30003044C00EBEA
:10064000800505EBC00504EB8504A36100BF70BD08
:100650004000004010B5094A00EB800303EBC003E3
:1006600002EB8302926A61F31702044B00EB8004F1
:1006700004EBC00403EB84039A6210BD4000004009
:1006800000210170417000BF03E00023821C53541D
:10069000491C0429F9D3002181710121C171002174
:1006A0000172C1600174416100BF04E0002300F1E8
:1006B00018025354491C0429F8D301210177002161
:1006C00041777047002000E0401C2F4A5269C2F376
:1006D000406212B9B0F5801FF6D3B0F5801F01D18A
:1006E00000BFFEE740F23232274B9A601A4692680A
:1006F000264B1A43244B9A6000BF234A9268C2F3E8
:100700000072002AF9D04FF44032214BDA62022104
:100710001D4A1161002000E0401C1B4A526902F092
:100720000302194B1B6903F003039A4202D0B0F590
:10073000801FF1D3B0F5801F01D100BFFEE7144A3E
:10074000D26A22F4807202F58072114BDA6200BF25
:100750000F4A526B02F00102002AF9D10C4AD26A08
:1007600022F4007202F50072094BDA6200BF084AF7
:10077000926B02F00102002AF9D1054AD26A42F0D6
:100780000702034BDA6270470010044000000104C6
:10079000000003404FF470000949086000BF00BF2B
:1007A00000BFBFF34F8F00BF00BF00BF00BF00BF3F
:1007B00000BFBFF36F8F00BF00BF00BF70470000D6
:1007C00088ED00E070B504460D46164632462946CF
:1007D00004F1280000F03CF870BD70B504460D46E9
:1007E00016463246294604F11C0000F031F870BD6F
:1007F00070B505460C4621792068012901D1E862CF
:1008000000E0286300BF61792068012901D1686395
:1008100000E0A86300BFE2792846216800F02FF8C5
:10082000227A28462168FFF7D8FF627A2846216895
:1008300000F030F8A27A28462168FFF7C3FFA179BB
:100840002068012901D1686100E0A86100BF70BD86
:1008500070B503460C46196800200CE00125854060
:1008600025403DB146000325B540A943450002FAA5
:1008700005F52943401C1028F0D3196070BD70B5F0
:1008800004460D4616463246294604F12400FFF779
:10089000DFFF70BD70B504460D4616463246294648
:1008A00004F12000FFF7D4FF70BD4FF6FF71016027
:1008B000002101714171C1710172417281728171B6
:1008C000704700000349C96A60F31341014AD162CD
:1008D000704700000000034010B5036A03248C40F9
:1008E000A34302FA01F42343036210BD10B5436A27
:1008F00003248C40A34302FA01F42343436210BD56
:1009000070B505460C46227800212846FFF7E4FF23
:10091000627802212846FFF7DFFFA27804212846EB
:10092000FFF7DAFFE27806212846FFF7D5FF2279A4
:1009300008212846FFF7D0FF62790A212846FFF7F1
:10094000CBFFA27900212846FFF7D0FFE2790221F0
:100950002846FFF7CBFF227A04212846FFF7C6FF7F
:10096000627A06212846FFF7C1FFA27A08212846AD
:10097000FFF7BCFFE27A0A212846FFF7B7FF70BDF8
:100980000021017041708170C170017141718171EC
:10099000C171017241728172C1727047426961F323
:1009A000041242617047426961F30102426170477B
:1009B00070B505460C4661782846FFF7F4FF2178AC
:1009C0002846FFF7EBFF6068A96960F31F41A96142
:1009D00000BF617A2846FFF7E6FF217A2846FFF735
:1009E000DDFFE068E96960F31F41E96100BF70BDA8
:1009F000C26961F31F42C2617047002141700170FA
:100A0000416041720172C160704730B50A78036875
:100A100062F38F33036000BF0A79036862F38203D5
:100A2000036000BF4A79036862F34D33036000BF7F
:100A30004A788B78940244EAC314056825F4FC557F
:100A40002C43046000BFCA78036862F30513036097
:100A500000BF4A7B036862F3C303036000BF0A7BE5
:100A6000036862F30103036000BF8A68826000BF0D
:100A70000A69026100BF30BD0021417081700173BD
:100A80000170417301714171C170816001617047F2
:100A9000054A1268824309B1034600E000231A4365
:100AA000014B1A6070470000E0100440054A1268CC
:100AB000824309B1034600E000231A43014B1A6048
:100AC00070470000F010044070B50C480068C0F397
:100AD00001250A48A038D0F8A000C0F3004030B18A
:100AE00006480068C0F30560401C440000E0012493
:100AF000284601F097FAB0FBF4F070BDA010044056
:100B000000487047001BB7000048704700127A0089
:100B100030B50E488068C0F305220C48806800F0AC
:100B20003F030A488068C0F3014408488068C0F366
:100B3000005008B1064900E0064901FB03F5012019
:100B4000A0405043B5FBF0F030BD00000010044061
:100B500000127A00001BB70010B50548C068C0F34A
:100B60000520441CFFF7D4FFB0FBF4F010BD0000DB
:100B70000010044070B504460C4850F82400C0F33F
:100B800001260A4850F82400C0F3004038B1074855
:100B900050F82400C0F30560401C450000E001252A
:100BA000304601F03FFAB0FBF5F070BD6010044034
:100BB0002DE9FF4704460F464FF00008684600F055
:100BC0000FF95948844202D85848844203D2012080
:100BD00004B0BDE8F0878DF805709DF8050010B9E8
:100BE00000BF534D07E09DF80500012801D1514D8C
:100BF00001E00120ECE7504884420BD24F48B0FBA3
:100C0000F4F0009001208DF804000098401C44434B
:100C1000032600E002264A48844203D301208DF8CF
:100C2000060008E04448844203D302208DF8060001
:100C300001E00120CCE74FF00009012143E0084624
:100C4000B5FBF1FC9DF806A0012303FA0AF3634308
:100C5000B3FBFCF2B5FBF0F300FB13538BBBB5FB0E
:100C6000F0F3DFF8E0C063452CD8B5FBF0F3DFF814
:100C7000D8C0634526D3B5FBF0FC9DF806A0012340
:100C800003FA0AF36343B3FBFCFA0CFB1A33C3B950
:100C90003F2A17D8022A15D305FB02F3B3FBF0F362
:100CA000DFF8A8C063450DD805FB02F3B3FBF0F3F2
:100CB000DFF89CC0634505D34FF001090390029211
:100CC00003E0FFE7491C4029B9D300BFB9F1000F89
:100CD00002D14FF0010803E0684600F03DF880467D
:100CE000B8F1000F01D0404672E71A48844203D39E
:100CF0000320FFF7E7FD10E01148844203D30220F0
:100D0000FFF7E0FD09E00C48844203D30120FFF720
:100D1000D9FD02E00020FFF7D5FD304600F068F86D
:100D20008046404654E7000000E1F50540420F00D0
:100D3000001BB70000127A0080C3C901005A62028A
:100D400000879303002D310100093D0000C2EB0B29
:100D5000000E2707804A5D0570B5044642F2107503
:100D60000026D4E9020140EA0120A17940EA0140CD
:100D7000617940EA015013498968134A11400843D8
:100D8000104988602079216840EA01200D49C9682E
:100D900043F60172914308430A49C860012000F0FC
:100DA00015F807E000BF07488068C0F3007000B185
:100DB00002E06D1E002DF5D100BF05B901263046B9
:100DC00070BD000000100440C0C0ECFF03498968FA
:100DD00060F39A61014A916070470000001004407E
:100DE00000214171016001718160C16081717047B2
:100DF00010B5014642F21072002000BF0E4B1B6975
:100E000061F301030C4C236100BF08E000BF0A4BF3
:100E10005B69C3F300130BB1521E00E001E0002A2E
:100E2000F4D100BF32B100BF034B5B6903F0030391
:100E30008B4200D0012010BD001004404FF0E02094
:100E4000006920F480304FF0E02108610A48007802
:100E500000F0200050B90948007800F0010028B1E6
:100E60000548008840F020000349088003480068D6
:100E7000401C024908607047A0010020900100203A
:100E8000F0B501251E4E766906F0030131B1012946
:100E900008D002290BD003292FD107E0194E1A4F91
:100EA0003E602AE0194E184F3E6026E000BF03293D
:100EB00004D1134EF668C6F30526751C104EB668AD
:100EC000C6F305220E4EB66806F03F030C4EB66818
:100ED000C6F301440A4EB668C6F300560EB109487F
:100EE00000E00A4800FB03F70126A64056436E4384
:100EF000B7FBF6F6044F3E6000BF00BFF0BD000038
:100F00000010044000127A0084010020001BB7008A
:100F100000B5FFF7D7FBFFF73DFC00BD10B500BFE4
:100F200001200349C86000BF02480068804710BD27
:100F30000080044038020020026861F30002026071
:100F40007047026861F3C302026070472DE9F04107
:100F500006460C4615460548B4FBF0F000FB05F7C5
:100F60003946304600F006F8BDE8F08140420F00F7
:100F7000416070478160704710B502480068804743
:100F800010BD00003002002010B52021014800F003
:100F90007AF810BD0050044010B52021034800F03D
:100FA00072F803480068804710BD000000500440FC
:100FB000340200207047000010B5024800688047E6
:100FC00010BD00003002002010B52021014800F0C3
:100FD0005AF810BD0060044010B52021034800F00D
:100FE00052F803480068804710BD000000600440CC
:100FF000340200202DE9F047074688461948874209
:1010000002D14FF0000901E04FF001094846FFF717
:10101000B1FD05464FEA0811B5FBF1F400EE108A68
:10102000B8EE400AF3EE000A60EE200A00EE105A15
:10103000B8EE400A80EE201A00EE104AB8EE400AE0
:1010400071EE400A9FED081AB6EE000A00EE810A22
:10105000BCEEC00A10EE106A00BF7C62BE6200BF28
:10106000BDE8F0870050044000008042026B61F34D
:1010700000020263704702469069084008B10120EF
:1010800070470020FCE74164704770B504460D4688
:1010900020466968FFF7AEFFA878E16A60F3461161
:1010A000E16200BF2878E16A60F3C301E16200BF3A
:1010B0006878E16A21F086010143E16200BF287A85
:1010C000E16A60F30411E16200BFA87A216B60F36A
:1010D0000821216300BF687A216B60F349212163F5
:1010E00000BF70BD4FF41651416003218170002193
:1010F000017241700170417281727047002817DBE4
:1011000000F01F02012191400A4A430942F82310CE
:1011100000BF00BF00BFBFF34F8F00BF00BF00BFC5
:1011200000BF00BF00BFBFF36F8F00BF00BF00BF95
:101130007047000080E100E0002817DB00F01F028C
:10114000012191400A4A430942F8231000BF00BF21
:1011500000BFBFF34F8F00BF00BF00BF00BF00BF85
:1011600000BFBFF36F8F00BF00BF00BF704700001C
:1011700080E100E0002817DB00F01F020121914010
:101180000A4A430942F8231000BF00BF00BFBFF363
:101190004F8F00BF00BF00BF00BF00BF00BFBFF345
:1011A0006F8F00BF00BF00BF7047000080E100E00C
:1011B000002809DB00F01F02012191404209920042
:1011C00002F1E022C2F800117047002809DB00F0AC
:1011D0001F02012191404209920002F1E022C2F86F
:1011E00000117047002809DB00F01F020121914027
:1011F0004209920002F1E022C2F800117047002873
:1012000009DB00F01F02012191404209920002F126
:10121000E022C2F80011704710B5002804DB4A072D
:10122000130E054A135406E04A07140E034A00F051
:101230000F031B1FD45410BD00E400E018ED00E0C4
:1012400000BF00BF00BFBFF34F8F00BF00BF00BF94
:101250000948006800F4E06008490843001D064999
:10126000086000BF00BF00BFBFF34F8F00BF00BFCB
:1012700000BF00BF00BFFDE70CED00E00000FA0575
:1012800002E008C8121F08C1002AFAD1704770474F
:10129000002001E001C1121F002AFBD170470000AD
:1012A000F0B589B0022003210122030243EA016361
:1012B00043EA0243474F3F68DFF81CC107EA0C07C7
:1012C0003B43444FA03FC7F8A03000BF0120394640
:1012D000D1F8A01060F300013A46C2F8A01000BF98
:1012E00000BF1146D1F8A01060F30411C2F8A0109D
:1012F00000BFFFF7E9FB05464FF47A70B5FBF0F04D
:10130000441E642004FB00F601203449096860F3A0
:101310000001324A116000BF01A8FFF7B1F90F20A8
:101320008DF8040001208DF8050000208DF80A00DA
:101330008DF8060004208DF80B0001A90020FFF7AE
:101340008BF801208DF8060004208DF80B0001A910
:101350000120FFF781F821460020FFF77BF9314695
:101360000120FFF777F901210020FFF723F8012181
:101370000846FFF71FF8002211461046FFF744F811
:10138000002211460120FFF73FF801210020FFF75E
:101390002DF801210846FFF729F83220FFF708FF52
:1013A0003320FFF705FF00BF00BF0C480068C0F303
:1013B00040000028F8D000BF4FF08040406820F087
:1013C000004000F100404FF08041486000BF09B08C
:1013D000F0BD0000A0100440FFFCFEC0000400406F
:1013E0007CB50546002000EB8526032D01DD401E5F
:1013F0007CBD72B6002411E04FF48072694630461D
:10140000FEF747FF0849082202FB04106946FEF771
:10141000F5FE00B104E00836601C84B2802CEBDBE2
:1014200000BF62B6B0B2E3E72C05002010B50A4851
:10143000007838B9094800688047012006490870DB
:10144000002406E004480078012801D1002400E0CF
:101450000624204610BD00001A02002024020020AD
:1014600010B5002406480078012806D10548006818
:10147000804700200249087000E00624204610BD85
:101480001A020020200200202DE9F05F06460D46DA
:101490004FF0000B2888052848D170784FEA0029C2
:1014A000B07840EA090909F101001FFA80F9F078E3
:1014B000040230790443012C35DBB4F5FA6F32DADB
:1014C000374600202880012007F8010B2888401C9F
:1014D000288004F0070040B12046E11704EB517169
:1014E000C910491C01F0FF0805E02046E11704EB94
:1014F0005171C1F3C70807F8018B2888401C288068
:10150000002322464946384600F042FC8246BAF1A2
:10151000000F04D0504601F0B5FC834608E028884F
:101520004044288004E04FF0030B01E04FF0030B30
:101530005846BDE8F09F2DE9F05F06460D464FF096
:10154000000B2888052847D170784FEA0029B07829
:1015500040EA090909F101001FFA80F9F078040254
:1015600030790443012C34DBB4F5FA6F31DA3746B5
:1015700000202880022007F8010B2888401C2880C2
:1015800004F0070040B12046E11704EB5171C91087
:10159000491C01F0FF0805E02046E11704EB5171FA
:1015A000C1F3C70807F8018B2888401C2880224611
:1015B0004946384600F040FC8246BAF1000F04D09C
:1015C000504601F05FFC834608E0288840442880AC
:1015D00004E04FF0030B01E04FF0030B5846BDE869
:1015E000F09F2DE9F04705460C464FF0000A208891
:1015F000052837D168784FEA0028A87840EA08081B
:1016000008F101001FFA80F8E87806022E79012E11
:1016100025DB7D2E23DC2F4600202080032007F8C9
:10162000010B2088401C20807006000E07F8010B7B
:101630002088401C2080002332464146384600F076
:1016400029FC8146B9F1000F04D0484601F01AFC8C
:10165000824609E0208800EB4600208004E04FF03D
:10166000030A01E04FF0030A5046BDE8F0872DE978
:10167000F04705460C464FF0000A2088052837D170
:1016800068784FEA0028A87840EA080808F10100C5
:101690001FFA80F8E878060228790643012E24DB39
:1016A0007D2E22DA2F4600202080042007F8010B2F
:1016B0002088401C20807006000E07F8010B20884F
:1016C000401C208032464146384600F023FC8146CB
:1016D000B9F1000F04D0484601F0D4FB824609E07E
:1016E000208800EB4600208004E04FF0030A01E070
:1016F0004FF0030A5046BDE8F0872DE9FC5F044631
:101700000D460020009028880A285DDB60784FEAAB
:10171000002AA07840EA0A0A0AF101001FFA80FABA
:10172000E07806022079064360794FEA002BA07921
:1017300040EA0B0B0BF101001FFA80FBE079070276
:10174000207A0743607A0190012E3BDB7D2E39DC45
:10175000012F37DB792F35DC79000198814231D1B7
:1017600001233A46594604F10A0000F093FB8146F2
:10177000B9F1000F1ED1A04600202880172008F8DC
:10178000010B2888401C28807006000E08F8010B09
:101790002888401C2880002332465146404600F0ED
:1017A00079FB8146B9F1000F04D12888022101FBA1
:1017B00006002880B9F1000F06D0484601F062FB10
:1017C000009001E0032000900098BDE8FC9F00001D
:1017D00070B505460C46064802880649681CFEF7A7
:1017E000E9FC03480088401C2080002070BD0000F8
:1017F000E00200202C0E00202DE9F84304460F469D
:101800004FF000083888052829D160780502A078B3
:101810000543681C85B22079F0B9E078FF2801D033
:10182000E078C8B900208DF80100E078FF2803D1E6
:1018300001208DF8000002E000208DF80000012357
:101840001A462946684600F0A3FA06464EB13046CD
:1018500001F018FB804604E04FF0030801E04FF070
:1018600003084046BDE8F8832DE9F04104460F46E1
:101870004FF000083888052812D160780502A0785A
:101880000543681C85B201231A462946E01C00F076
:1018900001FB064636B1304601F0F4FA804601E01D
:1018A0004FF003084046BDE8F0812DE9F05F0546A2
:1018B0000E464FF0000B3088052839DD68780702A6
:1018C000A8780743781C87B2E87804022879044393
:1018D00095F805A004F0070040B12046E11704EB9D
:1018E0005171C910491C01F0FF0805E02046E117BD
:1018F00004EB5171C1F3C708012C16DBB4F5F66F88
:1019000013DCD04511D1012322463946A81D00F031
:101910003FFA8146B9F1000F04D0484601F0B2FA0F
:10192000834607E00520308004E04FF0030B01E020
:101930004FF0030B5846BDE8F09F2DE9F0470446F1
:101940000E464FF0000A3088062828DB6078070230
:10195000A0780743781C87B2E07805022079054318
:1019600094F80590012D17DB782D15DC6806000E24
:10197000484511D101232A463946A01D00F08AFAB4
:101980008046B8F1000F04D0404601F07BFA824651
:1019900007E00520308004E04FF0030A01E04FF03B
:1019A000030A5046BDE8F0872DE9F04705460C468E
:1019B00016461F46DDF820904FF000081CB1012CA0
:1019C00001DBF72C02DD4FF0020835E01C48047003
:1019D00005BB1C481C4908601C481D4908601D487F
:1019E0001D4908601D481E4908601E481E490860C0
:1019F0001E481F4908601F481F4908601F482049AA
:101A000008604B463A4631460D48007800F0E8F849
:101A1000804602E04FF0020800BF00BFB8F1000F9F
:101A20000AD101F0EFFD10B94FF0030804E01548AA
:101A300005700120144908704046BDE8F087000099
:101A400018020020551D000020020020791D000012
:101A500024020020991C00001C020020391C0000F8
:101A600028020020213300002C020020F138000061
:101A700030020020C5390000340200208539000002
:101A800038020020190200201A02002038B5002573
:101A90004848007808B1062038BD684601F0A0FD2E
:101AA00001286FD19DF8000030B1012805D002282F
:101AB00018D003287AD166E078E03F4A3F49404891
:101AC000404B1B68984705465DB93D4800783E4944
:101AD0000978884202D03A48007810B9022001F013
:101AE00099FD63E0354800680078384908700120A6
:101AF00037490870002417E0364810F8340000B960
:101B000014E0344810F834003049097888420AD18A
:101B1000304800EBC40028494268284800689047D4
:101B20002B49087002E0641C102CE5DB00BF244840
:101B3000007830B326480078C8B100201E490880DC
:101B40002248007840F080011B4802880088401C31
:101B5000194B18801948006881541D4801781846AF
:101B600002880088401C188014480068815412487C
:101B700002881248016814480078174B1B68984780
:101B8000054613E013E01548007800F0010060B14D
:101B9000FFF74CFC1148008840F040000F490880D6
:101BA0000846008820F00100088000BF00BF002028
:101BB00072E700001A020020CA020020C4020020BE
:101BC000C80200202802002018020020C9020020BC
:101BD000CC020020440200201C020020A2010020B0
:101BE0002DE9F04781460E4614461F464FF0000887
:101BF00001F09CFB3B4608222146304601F02AFDBD
:101C0000012802D04FF003080FE0B4F5964F01D938
:101C1000232503E060000749B1FBF0F5A8B201F00D
:101C20001FFE012801D04FF0030801F095FB40464C
:101C3000BDE8F087A07F17002DE9F04104460D466E
:101C400016460020114908808046002701F06EFBEF
:101C50000F480088042812DB0D4801880D4801F068
:101C600043FB60B90B480078207009480088C01E0B
:101C700030800848401C28604FF0010800E005272C
:101C800001F06AFB3846BDE8F0810000F002002058
:101C9000EE0200204C0E00202DE9F04105460E46D4
:101CA00017464FF0000801F041FB22480078012858
:101CB00038D1701E204908600120204908801E4844
:101CC0000068057008460088384408800846018886
:101CD0001948006801F008FB044618490888411CAF
:101CE000164B198016490C54221219460888411CBB
:101CF000198013490A54012012490870012100205B
:101D000001F052FB00BF1049097809B90F4900E002
:101D10000F4908460821FFF7AEF90128F3D001F07A
:101D200051FE01E04FF0050801F016FB4046BDE80A
:101D3000F0810000E5020020E8020020EC02002013
:101D40004C0E0020E4020020FE020020005004405F
:101D50000060044010B501F0E9FA00200549087060
:101D60000021012001F020FB01F0B0FB01F0F4FAAA
:101D700010BD0000E502002010B501F0D7FA0021E7
:101D8000084601F011FB01F095FB01F0E5FA10BDEA
:101D90002DE9F04705460E46174699464FF0000AD2
:101DA0003CB2012E3FDBF01911283CDC701E1FFAFB
:101DB00080F8B9F1000F03D0B9F1010F32D116E06C
:101DC00012E0082C01DD082000E02046C2B24146A6
:101DD000174801F041FE05F8010BA4F1080004B218
:101DE00008F108001FFA80F8002CEADC1AE00EE087
:101DF00015F8013B082C01DD082000E02046C2B2A6
:101E000041460B4801F03DFEA4F1080004B2002C4D
:101E1000EEDC074800780649497840EA0120054988
:101E2000088000BF01E04FF0010A5046BDE8F0878E
:101E3000D8020020A20100202DE9F04705460C46FB
:101E400016464FF0000937B2012C1CDBA0191928E7
:101E500019DC601E1FFA80F812E0082F01DD08204F
:101E600000E03846C2B24146094801F0F5FD05F8E8
:101E7000010BA7F1080007B208F108001FFA80F86B
:101E8000002FEADC01E04FF001094846BDE8F08789
:101E9000DC020020F0B504460D460020012D33DBA6
:101EA000AE1840F20127BE422EDC184E3688A91B20
:101EB00013B1012B27D111E00DE0154E36F811605A
:101EC000361204F8016B124E16F8116004F8016B1B
:101ED000491C561EB2B2002AEFDC14E010E014F8E0
:101EE000017B3E020A4F27F8116014F8016B37F8A6
:101EF00011703E43064F27F81160491C561EB2B2BE
:101F0000002AECDC00BF00E00120F0BDD40200207C
:101F10002C0A0020F0B503460020012906DB8F18AB
:101F2000812F03DC104F3E88104C0AE0012906DBAC
:101F30008F18022F03DC0E4F3E880E4C01E001206B
:101F4000F0BD8D1B0BE034F815703F1203F8017BD8
:101F500014F8157003F8017B6D1C571EBAB2002AE5
:101F6000F1DC00BFECE70000CE0200202C090020CD
:101F7000D0020020D202002010B504461F2C00D948
:101F800010BD72B64FF4004101EB84200021FEF732
:101F900085F962B60348407840F001000149487075
:101FA00000BFEDE7DC020020F0EE400A9FED0D1AC5
:101FB000B0EE410A012011E00B4901EB8001D1EDA7
:101FC000001A01EE100AB8EEC11A21EE001A41EE15
:101FD000201A31EE801AB0EE410A401C0428EBDBD7
:101FE000704700000000000004030020F0EE400AEB
:101FF0009FED0A1AB0EE410A00200BE0084901EB00
:10200000800191ED001A00EE201A31EE001AB0EEB8
:10201000410A401C0428F1DB70470000000000006A
:102020000403002030B50446002534B1012C08D04B
:10203000022C0AD0032C10D10BE0FEF761FD0546FF
:102040000BE0FEF765FD054607E0FEF785FD05465A
:1020500003E0FEF759FD054600BF00BF284630BD2E
:1020600010B500207F4908707F4908707F490870CB
:102070007F490870002407E060B200F0A9FFA04289
:1020800000D103E0601CC4B2022CF5DB00BFBCB978
:10209000012078490870FFF7A3F9B0F5006F03D16C
:1020A0000120744948700BE0012001F063FA01201F
:1020B000FFF796F9B0F5006F02D101206D49487025
:1020C000012C18D101206B4948700020FFF788F9D6
:1020D000B0F5806F03D10120664908700BE0002045
:1020E00001F048FA0020FFF77BF9B0F5806F02D1CC
:1020F000012060490870022C7EDAA0225E495F4808
:10210000FEF758F878225C49A0315D48FEF752F896
:102110005C48807F5B49C97F00EB01206421484314
:1021200059490860574890F82000564991F8211005
:1021300000EB012055490870524890F8B40051490D
:1021400091F8B51000EB012051490870084600785D
:10215000052801DA0A2008704A4890F866004949C3
:1021600091F8671000EB01204A4908800846008872
:10217000012803DB08460088402802DD102045497D
:102180000880404890F864003E4991F8651000EBE3
:1021900001204149088008460088012803DB0846E1
:1021A0000088402802DD10203B4908803B48354923
:1021B000896F016090ED000A394880ED000A3949C5
:1021C0003048D0F8B600086037482E49C96B016026
:1021D00036482C49096C016035492A48D0F8A000DE
:1021E000086034492748D0F8A400086032492548DF
:1021F000D0F8A800086000E032E030492148D0F86B
:10220000E20008602E491F48D0F8DE0008602D4922
:102210001C48D0F8EA0008602B491A48D0F8E600BC
:1022200008602A491748B0F806010880284915486F
:10223000D0F84602086027491248D0F84A020860E0
:102240001D491048D0F8A80008601A490D48D0F878
:10225000A400086040F2FE320A491F48FDF7AAFFB9
:10226000204610BDF4010020E8010020F501002007
:10227000E9010020140200205A0600201403002067
:10228000B40400202C050020880100208C010020CF
:10229000C4010020D4010020D6010020B00100209C
:1022A000B4010020C0010020B8010020BC010020C2
:1022B000C8010020D0010020CC010020D80100205E
:1022C000DC010020E0010020E4010020F6010020F4
:1022D00004020020080200202C0A002008B5022079
:1022E000FEF786FD00218A48FEF762FCFEF7C8FD76
:1022F00001200146874A1268824309B1034600E083
:1023000000231A43834B1A6000BF01200146824A12
:10231000D2F80421824309B1034600E000231A43A6
:102320007C4B1B1D1A6000BF002409E0FFF798FEDC
:102330007A48007879494978084000B102E0641C85
:10234000022CF3DB00BF01207549A1F8D400000284
:10235000A1F8D60073480068B0F5165F0DD071483B
:102360000068B0F5614F08D06E480068B0F5E13FF5
:1023700003D04FF461406B4908606B480078012836
:1023800003DB69480078F72802DD01206649087000
:102390006548007865490884624800686421B0FB9C
:1023A000F1F06249C883002000905E480022036873
:1023B0005D4801781046FFF7F7FAFFF751F800F093
:1023C00059FFFEF76DFF00F06FFD5348001F0568D1
:1023D0005348C0F8FA50564805685148C0F8F650BE
:1023E00094E05448007800F0200038B1514800884B
:1023F00020F020004F490880FFF748FB4E48008836
:1024000000F4004028B34948B0F882024DF6AD61AF
:10241000884216D000204549A1F8820247484078FA
:1024200020F08000454948704348008820F400406F
:10243000414908804248407820F080004049487077
:1024400007E03F48407840F080003D49487000F088
:10245000FFF83948007800F0400000284BD00020F9
:102460003849086038480068384908603CE0002076
:1024700000F02AFF0020FEF7B3FFB0F5806F22D1F5
:102480001BE0012000F020FF0120FEF7A9FFB0F5BE
:10249000006F01D1FEF7D4FE00BF2B4801682B4826
:1024A000006864308142F8D32648006864302549CA
:1024B0000860254800682549086022480068B0F592
:1024C0007A7F11D2DDE700BF1F4801681F4800680E
:1024D00064308142F8D31B480068643019490860B1
:1024E000194800681949086016480068B0F57A7FF5
:1024F000BDD3FEF7A5FE1048007800F0200008B11B
:1025000000F026F800F0B4FA00F068F969E700007E
:1025100000127A0000110440001004401402002050
:102520002C090020880100208C0100202C0A0020AA
:1025300000ED00E0A0010020A2010020D802002050
:10254000DC0200209801002090010020940100206E
:1025500038B53748008820F0200035490880FEF75C
:1025600065FF0120334908700020009032480022A6
:102570000368084601781046FFF716FA2F490870DD
:10258000FEF76EFF2D4908702D490868FDF70AFE19
:102590003EE0FDF7FDFD132190FBF1F201FB12007F
:1025A00084B204EB84002749096801EB400500BFB1
:1025B00024480068A842FBD3FFF768FA2248B0F825
:1025C0006E022249B1F8FA10884220D11E48B0F8B4
:1025D00070021E49B1F8FC10884218D1FEF726FFA0
:1025E0001948B0F87202184908841249087000208E
:1025F0000090114800220368084601781046FFF752
:10260000D3F90E490870FEF72BFF0C49087000BF84
:10261000084800780128BCD000200B49A1F87202BC
:102620000348008840F040000149088038BD0000A0
:10263000A20100208C01002088010020A4010020BC
:10264000FC0F0440900100202C0A00202C090020DF
:1026500010B58BE04948007800F0200038B14748B9
:10266000008820F0200045490880FFF70FFA444811
:10267000008800F48070D8B14148008800F4004020
:10268000B0B13F48008820F480703D4908803D4843
:10269000407820F001003B4948703B48407820F0EA
:1026A000010039494870394991F88402FFF764FC08
:1026B0003348008800F40070E8B13148008800F425
:1026C0000040C0B12E48008820F400702C490880DA
:1026D0002C48407820F002002A4948702A48407867
:1026E00020F0020028494870284A92F8861292F891
:1026F000840200F003FF2248008800F48060E8B103
:102700001F48008800F40040C0B11D48008820F434
:1027100080601B4908801B48407820F0040019495C
:1027200048701948407820F0040017494870174A4B
:1027300092F8861292F8840200F014FC1048008887
:1027400000F4006090B10E48008800F4004068B1C9
:102750000B48008820F40060094908800948407847
:1027600020F0080007494870FDF79DFD04480088E7
:1027700000F4004000287FF46DAF10BDA0010020E0
:10278000A2010020D8020020DC0200202C0A002038
:1027900010B50146F0EE400A01EB81046406220EFA
:1027A00002F10A04E3B29FED0B1AB0EE410A1046A3
:1027B0000CE0094C04EB800494ED001A00EE201AA2
:1027C00031EE001AB0EE410A441CE0B29842F0DB50
:1027D00010BD0000000000001403002010B5934855
:1027E000007800F0040000287DD100F01FFC0028D4
:1027F0007AD08F48007800F00100002875D08C480E
:10280000007800F002000028F8D08A48407800F0F4
:102810000C0038B38848008888490988401A00EEBF
:10282000100AB8EEC00A8648D0ED000A854890ED3F
:10283000001A30EEC11AC0EE010A90ED000A9FEDB9
:10284000821A31EE401A7D48008800EE100AB8EE78
:10285000400A00EE810ABDEEC00A10EE100A7B4964
:10286000088085E07A487B49096801607A4890EDE4
:10287000000A7A48D0ED000AB4EEE00AF1EE10FA50
:102880004FDD90ED000AF7EE000A30EE600A704866
:10289000D0ED000AB4EEE00AF1EE10FA0EDC6E485C
:1028A00090ED000AF0EE000A20EE200A6848D0ED14
:1028B000000AB4EEE00AF1EE10FA04D240F6FF701E
:1028C0006249088054E05C4800885C490988401AE5
:1028D00000EE100AB8EEC00A5948D0ED000A594877
:1028E00090ED001A02E082E07DE054E030EEC11A83
:1028F000C0EE010A564890ED000A524890ED001AC9
:1029000030EE411A4D48008800EE100AB8EE400A39
:1029100000EE810ABDEEC00A10EE100A4B49088095
:1029200026E04548008845490988401A00EE100A0B
:10293000B8EEC00A4248D0ED000A424890ED001AB5
:1029400030EEC11AC0EE010A90ED000A9FED3E1A6A
:1029500031EE401A3948008800EE100AB8EE400AFD
:1029600000EE810ABDEEC00A10EE100A3749088059
:102970003B4800683B490968401A3A4908600846E4
:102980000088C0F30B003349A1F8F2003448006816
:102990003449086030E02848008828490988401AEE
:1029A00000EE100AB8EEC00A2548D0ED000A25480E
:1029B00090ED001A30EEC11AC0EE010A90ED000A47
:1029C0009FED211A31EE401A1C48008800EE100AD3
:1029D000B8EE400A00EE810ABDEEC00A10EE100A01
:1029E0001A49088008E000201849088004E01E48C1
:1029F000B0F81A011549088014480088B0F5805FC6
:102A000005DB40F6FF711948FDF7F2FF06E00F48BD
:102A10000088C0F30B011548FDF7EAFF0B4800885A
:102A2000C0F30B000B49A1F8CA0010BDA2010020A1
:102A3000A0010020DC0200200E0200200C02002079
:102A40000802002004020020CDCC4C3D10020020E2
:102A5000A80100202C090020B8010020BC010020A2
:102A6000900100209C0100202C0A002000D004408E
:102A700030B50025E4480088E4490880E44800783F
:102A8000F0B1E4480068E4490988B0FBF1F0E3499B
:102A90000880E04890ED000AB8EE400ADFEDE00A59
:102AA00060EE200ADC480088C0EB003000EE100A1F
:102AB000B8EEC00A80EE801ADA4880ED001A21E0F4
:102AC000D948007800281DDDD2480068D649097829
:102AD000B0FBF1F0D1490880CE4890ED000AB8EE85
:102AE000400ADFEDCF0A60EE200ACF480078C0EB45
:102AF000003000EE100AB8EEC00A80EE801AC94815
:102B000080ED001AC5480088C849A1F8A20008460F
:102B1000C44909680160C34890ED000AC448D0ED7B
:102B2000000AB4EEE00AF1EE10FA0ADCBD4890EDBE
:102B3000000AC048D0ED000AB4EEE00AF1EE10FA47
:102B40000CD2BD48008820F00100BB490880BB487A
:102B5000007840F00100B94908700BE0B6480088E1
:102B600040F00100B4490880B448007820F001002A
:102B7000B2490870B2480078F0B1B2480068B24972
:102B80000988B0FBF1F0B1490880AE4890ED000A29
:102B9000B8EE400ADFEDA20A60EE200AAA480088DB
:102BA000C0EB003000EE100AB8EEC00A80EE801ACA
:102BB000A74880ED001A21E0A648007800281DDD16
:102BC000A0480068A3490978B0FBF1F09F4908804C
:102BD0009C4890ED000AB8EE400ADFED910A60EEE5
:102BE000200A9C480078C0EB003000EE100AB8EED6
:102BF000C00A80EE801A964880ED001A934800883B
:102C00008A49A1F8A40091480088C88408469049E0
:102C1000096841608E4890ED000A8F48D0ED000AA7
:102C2000B4EEE00AF1EE10FA0ADC894890ED000AF1
:102C30008A48D0ED000AB4EEE00AF1EE10FA0CD2A8
:102C40007D48008820F002007B4908807B4800789E
:102C500040F00200794908700BE07748008840F0A6
:102C60000200754908807548007820F00200734919
:102C700008707148007800F00200E8B378480078E6
:102C800000F00200C0BB724890ED000A7548D0ED1C
:102C9000000A30EE600AB0EE405A734890ED000A28
:102CA000724890ED001AC0EE010A714890ED000ADA
:102CB000704890ED001A30EE411A90ED000A00EED7
:102CC000810A30EE050AB0EE405A002500241AE0D1
:102CD000B0EE450A2046FFF75BFD674800EB840035
:102CE00080ED000A644800EB840090ED000AB5EE28
:102CF000C00AF1EE10FA00E015E002D0002C00DD71
:102D00000125601CC4B2042CE2DB35B94B48407885
:102D100040F004004949487005E04848407820F0F8
:102D20000400464948704F4890ED000AB5EEC00ACD
:102D3000F1EE10FA06D14148407840F008003F49D2
:102D4000487005E03D48407820F008003B49487055
:102D50003948007800F00100A8B3A5B340480078D6
:102D600000F0020078BB3148B0F85200401C80B23D
:102D70002E49A1F8520028B90846B0F85400401C6A
:102D8000A1F854003D48D0ED000A264890ED000A15
:102D900000F014FA344880ED000A72B6324890ED23
:102DA000000AF9EE000AB4EEE00AF1EE10FA0BDDCB
:102DB0001E482D49096801602B4890ED000A2F48F4
:102DC00080ED000A15E015E01848B0F87A00401CC4
:102DD00080B21649A1F87A0028B90846B0F87C00FC
:102DE000401CA1F87C00264890ED000A234880EDA5
:102DF000000A62B60448008804490988401A0B4951
:102E0000A1F8F20030BD0000900100201202002065
:102E1000E8010020EC010020D60100200002002083
:102E200033335340F8010020F40100202C09002026
:102E3000D8010020DC010020A0010020DC020020DD
:102E4000E9010020F0010020D4010020020200204E
:102E5000FC010020F5010020E0010020E401002039
:102E6000A2010020C8010020AC010020B801002010
:102E7000D0010020CC01002004030020B401002078
:102E8000B0010020014621B1012904D0072906D153
:102E900003E0002005E0022003E0062001E004201A
:102EA00000BF00BF7047000000B58FB00121202097
:102EB000FDF7EEFD01212020FDF7F8FD0AA8FDF742
:102EC000DBFD00208DF834008DF829008DF82A00F4
:102ED00040F6FF700E900AA91F48FDF796FD06A860
:102EE000FDF78BFD0020099006A91B48FDF760FD4A
:102EF00003A8FDF745FD01208DF8160002208DF88E
:102F0000130003A91448FDF7FBFC6846FDF7CDFC50
:102F100001208DF80500C002009069460F48FDF7BA
:102F200067FC4FF40060012111B10C4A506101E0CF
:102F30000A4A906100BF4FF400700121084A1269EB
:102F4000824309B1034600E000231A43044B1A618F
:102F500000BF0FB000BD000000D0044000000140E1
:102F6000000004402DE9FC4105460E46072E01D81D
:102F70001F2D01D9BDE8FC814FF4004000EB8520F6
:102F800000EBC61772B6002412E0002269463846EC
:102F9000FDF77FF940F2551000EB84000A4901EB80
:102FA000400000990160019941600837601CC4B27B
:102FB000102CEADB62B60548407840F00400034973
:102FC000487000BFD6E700002C0A0020DC02002079
:102FD0007CB50546002000EB8526032D01DD401E53
:102FE0007CBD72B6002410E04FF480726946304612
:102FF000FDF74FF90C48082101FB0400009901601E
:10300000019941600836601C84B2802CECDB62B60A
:103010004FF48061044800F067F910B16FF00100CF
:10302000DEE72846DCE700002C050020DFED5E0A25
:10303000B0EE600A5D48008858B15C48408840B1F5
:103040005A48808828B159488088584A5288904206
:1030500001DA002070475548B0F90000544A128840
:10306000904209DB51484088524A10804F4880887E
:10307000514A10800120EDE700218FE0481C00EB51
:1030800040004A4A32F8100080B901EB410002EBDF
:1030900040004088474A108001EB4100434A02EB60
:1030A00040008088444A10800120D3E7481C00EB90
:1030B00040003E4A32F910003D4A128890426BDBD4
:1030C000481C00EB4000394A32F9100001EB410284
:1030D000364B33F91220801A00EE900AB8EEE01A4F
:1030E00001EB41001A4632F9100000EE900AF8EEAA
:1030F000E01A2F48008800EE900AF8EE600A70EEA1
:10310000E10AC0EE811AB0EE610A481C00EB4000F3
:1031100002EB4000408801EB410203EB420252887F
:10312000801A00EE900AB8EEE01A01EB41001A4650
:1031300002EB4000408800EE900AF8EE600A41EE93
:10314000000AFCEEE00A10EE900A1A4A1080481CB1
:1031500000EB40001A4602EB4000808801EB410280
:1031600003EB42029288801A00EE900AB8EEE01A51
:1031700001EB41001A4602EB4000808800EE900A05
:10318000F8EE600A41EE000AFCEEE00A10EE900A4A
:10319000084A108001205DE7481CC1B21329FFF6E0
:1031A0006DAF002056E7000000000000B4040020CE
:1031B000020200200C0200200E02002000B5B0EE3A
:1031C000403AF0EE603AF0EE632A274890ED000AAC
:1031D000B0EE404A90ED000A30EE430A80ED000A5E
:1031E00000222EE0B0EE620AFEF700FFF0EE404A49
:1031F000B0EE620AFEF7D8FEC4EE800A32EEE02A94
:1032000032EE620AB5EEC00AF1EE10FA0ADD32EED5
:10321000620A1648D0ED000AB4EEE00AF1EE10FAA8
:103220000BD212E032EEC20A1048D0ED000AB4EE22
:10323000E00AF1EE10FA00D207E0F0EE422A501C4C
:10324000C2B20B4800788242CCDB00BF064880ED5A
:10325000004A07480078824202DAB0EE420A00BD16
:10326000B9EE040AFBE7000004030020C0010020BF
:10327000C401002010B54FF0FF300221002804DB0C
:103280004A07130E0D4A135406E04A07140E0C4A5F
:1032900000F00F031B1FD45400BF00204FF0E021AB
:1032A0008861084800684FF47A71B0FBF1F0401E65
:1032B0004FF0E02148610720086110BD00E400E004
:1032C00018ED00E08401002010B5044640F2FE3203
:1032D00003490448FCF76EFF204600F04BF910BD8F
:1032E0002C0A00202C05002070B502460C46FF2554
:1032F000FF2309E012F8010B80EA03010648405C55
:1033000080EA05030548455C2000A4F10106B4B23B
:10331000F0D143EA052070BDE23A0000E23B000034
:1033200010B500F02FF800F0B1F810BD10B5094944
:10333000097809B91B2100E01F210846FDF7DEFED0
:103340000449097809B91A2100E01E210846FDF751
:10335000D5FE10BDFE02002010B50949097809B953
:103360001B2100E01F210846FDF72FFF04490978C3
:1033700009B91A2100E01E210846FDF726FF10BDFD
:10338000FE02002010B50549097809B9044900E09A
:10339000044908460021FDF769FE10BDFE02002029
:1033A000005004400060044070B504460D46CCB1A6
:1033B0000120334948713348007810B94FF4006058
:1033C00001E04FF400702E4908602F48FDF710FA15
:1033D0002C49097809B91A2100E01E210846FDF799
:1033E00001FF18E00020264948712648007810B9EE
:1033F0004FF4006001E04FF400702149086022485A
:10340000FDF7F6F91F49097809B91A2100E01E21D4
:103410000846FDF791FECDB10120194948711948C0
:10342000007810B94FF4806001E04FF480701449C7
:1034300008601548FDF7DCF91249097809B91B2124
:1034400000E01F210846FDF7CDFE18E000200C49E2
:1034500048710C48007810B94FF4806001E04FF4D7
:103460008070074908600848FDF7C2F905490978E6
:1034700009B91B2100E01F210846FDF75DFE70BD64
:103480004C0F0020FE0200200010014010B5152056
:10349000FDF770FE00210648FDF753FD00210448AA
:1034A000FDF74AFD00210248FDF762FD10BD000056
:1034B0000080044010B51520FDF75CFE0021024895
:1034C000FDF73AFD10BD00000080044010B500215A
:1034D0000948FDF731FD00210748FDF749FD0121AD
:1034E0000548FDF72EFD01210348FDF725FD1520B8
:1034F000FDF785FE10BD0000008004402DE9FC4171
:1035000005460E46072E01D81F2D01D9BDE8FC81C6
:103510004FF4004000EB852000EBC61772B6002484
:1035200012E040F2551000EB84000F4901EB40001F
:103530000168009140680190002269463846FCF716
:10354000B7FE0837601CC4B2102CEADB80210748A4
:10355000FCF749FE62B60648407840F00200044994
:10356000487000BFD2E700002C0A0020D60C0020D3
:10357000DC0200207CB50546002000EB8526032DEB
:1035800001DD401E7CBD72B64FF480713046FCF701
:1035900085FE40F2FE311148FFF7A6FE04460F49B2
:1035A00081F8FE43201281F8FF03002410E00B484D
:1035B000082101FB040001680091406801904FF46C
:1035C000807269463046FCF773FE0836601C84B290
:1035D000802CECDB62B62846D4E700002C050020E6
:1035E00001460020054A127832B1054A12780A7065
:1035F0000022024B1A70012070470000F4020020E4
:10360000F3020020002002490870012070470000EA
:10361000F402002001460120024A107002480170A5
:1036200001207047F4020020F30200200146064A00
:1036300012780AB9054A00E0054A10460268D2B27B
:103640000A70012070470000FE0200200050044074
:10365000006004402DE9F04104460D4616461F4621
:10366000022001216B4A1268824309B1034600E03F
:1036700000231A43674B1A6000BF02200121664AEB
:10368000D2F80421824309B1034600E000231A4323
:10369000604B1B1D1A6000BF604804700120604928
:1036A00048710020C871012048720CB9800201E005
:1036B0004FF480705A490860012088710020887298
:1036C0005848FDF795F814B94FF4006001E04FF445
:1036D0000070534908605348FDF78AF814B14FF061
:1036E000010C01E04FF0000C604601210A460B4638
:1036F000DFF824C10CF1600C5CF820C0DFF82881F1
:103700000CEA080C4FEA012848EA026848EA034834
:103710004CEA080CDFF8008108F1600848F820C086
:1037200000BF0CB1012200E00022104601213A4AFC
:10373000603252F8202061F30002374B603343F8C7
:10374000202000BF0CB1012200E000221046012120
:10375000314A603252F8202061F304122E4B60335C
:1037600043F8202000BF3148FDF7BCFC2F484560DE
:1037700001202E498872487203208870002048700A
:10378000087008720CB92A4900E02A4908462749FE
:10379000FDF77BFC0CB9264900E0264908460121CB
:1037A000FDF764FC0CB9224B00E0224B18464FF4A5
:1037B0007F610122836B8B430AB18C4601E04FF09D
:1037C000000C43EA0C03836300BF0CB91B2100E02B
:1037D0001F210846FDF706FD0CB91A2100E01E2145
:1037E0000846FDF7FFFC0CB91B2100E01F2108462D
:1037F0000121FDF711FD0CB91A2100E01E21084638
:103800000121FDF709FD01211520FDF705FD01202E
:10381000BDE8F0810011044000100440FE020020C9
:103820004C0F002000100140FFFCFEC0580F00208C
:1038300000500440006004400146064B1B780BB961
:10384000054B00E0054B1A460846106000BF0120FA
:1038500070470000FE020020005004400060044059
:1038600070B50546012001461E4A1268824309B11F
:10387000034600E000231A431A4B1A6000BF0120E0
:103880000146184AE03AD2F8F020824309B10346D3
:1038900000E000231A43134B10331A6000BF124894
:1038A000006844F62061B0FBF1F422460E4801683E
:1038B0000E48FDF74BFB01210C48FDF742FB0020B1
:1038C0000A49096821F006010143084A116000BF56
:1038D00001211046FDF730FB1520FDF790FC01207B
:1038E00070BD0000E010044084010020008004400E
:1038F00038B500246846FFF799FE1E48007830B1BD
:1039000001280AD002281ED0032830D102E0FFF798
:10391000DDFD2CE0FFF7DAFD29E017480078401CB8
:10392000154908700020154908809DF80020088876
:10393000411C124B198012490A5402200D4908708B
:10394000FFF7C4FD13E00D480088FF2809DC9DF84F
:1039500000200A490888411C084B198008490A546C
:1039600002E0032003490870FFF7B0FD00BF00BF6D
:10397000204638BDE5020020F2020020EE020020C1
:103980004C0E002010B500240D48007820B102280C
:1039900007D003280BD109E00020FFF73BFE0446C7
:1039A00006E00120FFF736FE044601E000E000BF1C
:1039B00000BFFFF77FFD012001490870204610BDC0
:1039C000E502002010B500241C48007810B1012841
:1039D00031D104E000210120FFF7E6FC2BE018487C
:1039E000008878B117490A880988491C154B198045
:1039F0001549885CFFF720FF11480088401E1049D8
:103A0000088017E000BF1149097809B9104900E0A2
:103A1000104908460821FDF72EFB0128F3D00320AA
:103A2000FFF7F8FD044600210120FFF7BDFC002050
:103A30000249087000BF00BF204610BDE40200200C
:103A4000EC020020F00200204C0E0020FE020020BC
:103A50000050044000600440F0B503460C46154693
:103A6000E208A4EBC20087B20120A840401E86B243
:103A7000995C501C185C41EA002139413140C8B2C0
:103A8000F0BD2DE9F043044615461F46C808A1EBDA
:103A9000C0081FFA88FC07FA0CF81FFA88F74FF0E5
:103AA000010808FA05F8A8F101081FFA88F6A1EB49
:103AB000C00806FA08F81FFA88F6225C00F101082F
:103AC00014F8088042EA082222EA060848EA0702B7
:103AD00022544FEA222900F1010804F80890BDE8B9
:103AE000F08300C1814001C0804101C0804100C11C
:103AF000814001C0804100C1814000C1814001C0BE
:103B0000804101C0804100C1814000C1814001C0AD
:103B1000804100C1814001C0804101C0804100C19D
:103B2000814001C0804100C1814000C1814001C08D
:103B3000804100C1814001C0804101C0804100C17D
:103B4000814000C1814001C0804101C0804100C16D
:103B5000814001C0804100C1814000C1814001C05D
:103B6000804101C0804100C1814000C1814001C04D
:103B7000804100C1814001C0804101C0804100C13D
:103B8000814000C1814001C0804101C0804100C12D
:103B9000814001C0804100C1814000C1814001C01D
:103BA000804100C1814001C0804101C0804100C10D
:103BB000814001C0804100C1814000C1814001C0FD
:103BC000804101C0804100C1814000C1814001C0ED
:103BD000804100C1814001C0804101C0804100C1DD
:103BE000814000C0C101C30302C2C60607C705C5A4
:103BF000C404CC0C0DCD0FCFCE0E0ACACB0BC90915
:103C000008C8D81819D91BDBDA1A1EDEDF1FDD1D24
:103C10001CDC14D4D515D71716D6D21213D311D154
:103C2000D010F03031F133F3F23236F6F737F535A4
:103C300034F43CFCFD3DFF3F3EFEFA3A3BFB39F9D4
:103C4000F83828E8E929EB2B2AEAEE2E2FEF2DEDA4
:103C5000EC2CE42425E527E7E62622E2E323E12114
:103C600020E0A06061A163A3A26266A6A767A56524
:103C700064A46CACAD6DAF6F6EAEAA6A6BAB69A994
:103C8000A86878B8B979BB7B7ABABE7E7FBF7DBDA4
:103C9000BC7CB47475B577B7B67672B2B373B171D4
:103CA00070B05090915193535292965657975595A4
:103CB00094549C5C5D9D5F9F9E5E5A9A9B5B995954
:103CC0005898884849894B8B8A4A4E8E8F4F8D4D24
:103CD0004C8C448485458747468682424383418194
:103CE00080400000143D000000000020840100001E
:103CF00080120000983E0000840100208001000036
:103D00003C020000F03E0000040300209C10000074
:103D1000901200001CB54FF40046002472B612E069
:103D2000C4F3090018B90021204600F03FF8002232
:103D30006946304600F052F800226946204600F0FD
:103D400083F808340836B4F5004FE9D3002500E0C5
:103D50006D1CB5F57A7FFBDB00BF00BF00BF00BF65
:103D600000BFBFF34F8F00BF00BF00BF094800680E
:103D700000F4E06008490843001D0649086000BFE0
:103D800000BF00BFBFF34F8F00BF00BF00BF00BF29
:103D900000BFFDE70CED00E00000FA050248806A74
:103DA00000F00100704700000000034070B50546B8
:103DB0000C4604B900E000BF284600F035F8214663
:103DC000042000F037F800BF00BF00BF00BF00BFF5
:103DD00000BFFFF7E3FF0028FBD170BD70B50646BA
:103DE0000D46144604B900E000BF304600F01CF850
:103DF0002146012000F01EF800BF00BF00BF00BF39
:103E000000BF00BFFFF7CAFF0028FBD100BF06E0DC
:103E10000146044A52F8212045F82020401C02287F
:103E2000F6D370BD040003400149086070470000EC
:103E300000000340024A0A430243024B5A627047A1
:103E40000000DEC00000034070B506460D46144673
:103E500004B900E000BF3046FFF7E6FF002007E0AE
:103E6000014655F820200B4B43F8212000BF401C91
:103E70000228F5D321460220FFF7DCFF00BF00BF78
:103E800000BF00BF00BF00BFFFF788FF0028FBD1C5
:103E900070BD0000040003405122E10226014A3FA8
:103EA00004000C55803F0AD7233C17B7D1380A02CB
:103EB0002902321123D1173204236F16320323E370
:103EC000153210233B1932062369181923111AFBE6
:103ED0002029E823891432051AF915320F1AAB206C
:103EE00029721A3738013A3A015C69060128000044
:04000005000001599D
:00000001FF
